{
  "contractName": "ICOVirtRealToken",
  "abi": [
    {
      "constant": false,
      "inputs": [],
      "name": "ChangePrice",
      "outputs": [],
      "payable": false,
      "stateMutability": "nonpayable",
      "type": "function"
    },
    {
      "constant": true,
      "inputs": [],
      "name": "emergencyFlagAndHiddenCap",
      "outputs": [
        {
          "name": "",
          "type": "bool"
        }
      ],
      "payable": false,
      "stateMutability": "view",
      "type": "function"
    },
    {
      "constant": false,
      "inputs": [
        {
          "name": "_startTime",
          "type": "uint256"
        }
      ],
      "name": "ChangeStart",
      "outputs": [],
      "payable": false,
      "stateMutability": "nonpayable",
      "type": "function"
    },
    {
      "constant": true,
      "inputs": [],
      "name": "endTime",
      "outputs": [
        {
          "name": "",
          "type": "uint256"
        }
      ],
      "payable": false,
      "stateMutability": "view",
      "type": "function"
    },
    {
      "constant": true,
      "inputs": [],
      "name": "USDto1ETH",
      "outputs": [
        {
          "name": "",
          "type": "uint256"
        }
      ],
      "payable": false,
      "stateMutability": "view",
      "type": "function"
    },
    {
      "constant": true,
      "inputs": [],
      "name": "wallet",
      "outputs": [
        {
          "name": "",
          "type": "address"
        }
      ],
      "payable": false,
      "stateMutability": "view",
      "type": "function"
    },
    {
      "constant": true,
      "inputs": [],
      "name": "maxTokensToSold",
      "outputs": [
        {
          "name": "",
          "type": "uint256"
        }
      ],
      "payable": false,
      "stateMutability": "view",
      "type": "function"
    },
    {
      "constant": true,
      "inputs": [],
      "name": "totalTokensSold",
      "outputs": [
        {
          "name": "",
          "type": "uint256"
        }
      ],
      "payable": false,
      "stateMutability": "view",
      "type": "function"
    },
    {
      "constant": true,
      "inputs": [],
      "name": "startTime",
      "outputs": [
        {
          "name": "",
          "type": "uint256"
        }
      ],
      "payable": false,
      "stateMutability": "view",
      "type": "function"
    },
    {
      "constant": false,
      "inputs": [
        {
          "name": "_USDto1ETH",
          "type": "uint256"
        }
      ],
      "name": "ChangeUSDto1ETH",
      "outputs": [],
      "payable": false,
      "stateMutability": "nonpayable",
      "type": "function"
    },
    {
      "constant": false,
      "inputs": [],
      "name": "emergencyAndHiddenCapToggle",
      "outputs": [],
      "payable": false,
      "stateMutability": "nonpayable",
      "type": "function"
    },
    {
      "constant": true,
      "inputs": [],
      "name": "owner",
      "outputs": [
        {
          "name": "",
          "type": "address"
        }
      ],
      "payable": false,
      "stateMutability": "view",
      "type": "function"
    },
    {
      "constant": true,
      "inputs": [],
      "name": "price",
      "outputs": [
        {
          "name": "",
          "type": "uint256"
        }
      ],
      "payable": false,
      "stateMutability": "view",
      "type": "function"
    },
    {
      "constant": false,
      "inputs": [
        {
          "name": "newOwner",
          "type": "address"
        }
      ],
      "name": "transferOwnership",
      "outputs": [],
      "payable": false,
      "stateMutability": "nonpayable",
      "type": "function"
    },
    {
      "constant": false,
      "inputs": [
        {
          "name": "_endTime",
          "type": "uint256"
        }
      ],
      "name": "ChangeEnd",
      "outputs": [],
      "payable": false,
      "stateMutability": "nonpayable",
      "type": "function"
    },
    {
      "constant": true,
      "inputs": [],
      "name": "token",
      "outputs": [
        {
          "name": "",
          "type": "address"
        }
      ],
      "payable": false,
      "stateMutability": "view",
      "type": "function"
    },
    {
      "inputs": [
        {
          "name": "_owner",
          "type": "address"
        },
        {
          "name": "_wallet",
          "type": "address"
        },
        {
          "name": "_token",
          "type": "address"
        }
      ],
      "payable": false,
      "stateMutability": "nonpayable",
      "type": "constructor"
    },
    {
      "payable": true,
      "stateMutability": "payable",
      "type": "fallback"
    },
    {
      "anonymous": false,
      "inputs": [
        {
          "indexed": true,
          "name": "previousOwner",
          "type": "address"
        },
        {
          "indexed": true,
          "name": "newOwner",
          "type": "address"
        }
      ],
      "name": "OwnershipTransferred",
      "type": "event"
    }
  ],
  "bytecode": "0x60606040526001805460a060020a60ff02191690556359d576016002556359fe54816003556101326004556000600655341561003a57600080fd5b6040516060806107c983398101604052808051919060200180519190602001805160008054600160a060020a03878116338216600160a060020a031993841617831617909255600180548784169083161790556007805492841692909116919091179055600454909250620f42409150670de0b6b3a76400008115156100bc57fe5b048115156100c657fe5b046005555050506106ed806100dc6000396000f300606060405236156100e35763ffffffff7c010000000000000000000000000000000000000000000000000000000060003504166307fb37d481146102905780630ccc642e146102a55780630e78501f146102cc5780633197cbb6146102e25780633445679a14610307578063521eb2731461031a578063536dd8f91461034957806363b201171461035c57806378e979251461036f5780637d29f868146103825780638a5ddd9b146103985780638da5cb5b146103ab578063a035b1fe146103be578063f2fde38b146103d1578063f72f6826146103f0578063fc0c546a14610406575b60008060008060035442111580156100fd57506002544210155b151561010857600080fd5b60015474010000000000000000000000000000000000000000900460ff161561013057600080fd5b60065465af13e61e8800901061014557600080fd5b60055434945084101561015757600080fd5b61016384600554610419565b9250610173846005548502610454565b915061017f8483610454565b905060008211156101bb57600160a060020a03331682156108fc0283604051600060405180830381858888f1935050505015156101bb57600080fd5b600154600160a060020a031681156108fc0282604051600060405180830381858888f1935050505015156101ee57600080fd5b600754600160a060020a031663d1ce039333856000604051602001526040517c010000000000000000000000000000000000000000000000000000000063ffffffff8516028152600160a060020a0390921660048301526024820152604401602060405180830381600087803b151561026657600080fd5b6102c65a03f1151561027757600080fd5b5050506040518051505060068054909301909255505050005b341561029b57600080fd5b6102a3610466565b005b34156102b057600080fd5b6102b86104e7565b604051901515815260200160405180910390f35b34156102d757600080fd5b6102a3600435610508565b34156102ed57600080fd5b6102f5610528565b60405190815260200160405180910390f35b341561031257600080fd5b6102f561052e565b341561032557600080fd5b61032d610534565b604051600160a060020a03909116815260200160405180910390f35b341561035457600080fd5b6102f5610543565b341561036757600080fd5b6102f561054d565b341561037a57600080fd5b6102f5610553565b341561038d57600080fd5b6102a3600435610559565b34156103a357600080fd5b6102a3610584565b34156103b657600080fd5b61032d6105e2565b34156103c957600080fd5b6102f56105f1565b34156103dc57600080fd5b6102a3600160a060020a03600435166105f7565b34156103fb57600080fd5b6102a3600435610692565b341561041157600080fd5b61032d6106b2565b60008080831161042557fe5b828481151561043057fe5b049050828481151561043e57fe5b06818402018414151561044d57fe5b9392505050565b60008282111561046057fe5b50900390565b60008054819033600160a060020a0390811691161461048457600080fd5b600454670de0b6b3a764000081151561049957fe5b049150620f4240820490506002546206978001421115156104be5760058190556104e3565b600254620d2f000142116104db57600560098202046005556104e3565b600281026005555b5050565b60015474010000000000000000000000000000000000000000900460ff1681565b60005433600160a060020a0390811691161461052357600080fd5b600255565b60035481565b60045481565b600154600160a060020a031681565b65af13e61e880081565b60065481565b60025481565b60005433600160a060020a0390811691161461057457600080fd5b6004819055610581610466565b50565b60005433600160a060020a0390811691161461059f57600080fd5b6001805474ff0000000000000000000000000000000000000000198116740100000000000000000000000000000000000000009182900460ff1615909102179055565b600054600160a060020a031681565b60055481565b60005433600160a060020a0390811691161461061257600080fd5b600160a060020a038116151561062757600080fd5b600054600160a060020a0380831691167f8be0079c531659141344cd1fd0a4f28419497f9722a3daafe3b4186f6b6457e060405160405180910390a36000805473ffffffffffffffffffffffffffffffffffffffff1916600160a060020a0392909216919091179055565b60005433600160a060020a039081169116146106ad57600080fd5b600355565b600754600160a060020a0316815600a165627a7a723058206856cde889524f882338b8823d7e9a351f7edd163427047d37a86e828dff93bd0029",
  "source": "pragma solidity ^0.4.16;\n\nimport \"./VirtRealToken.sol\";\n\n// ============================================================================\n\ncontract ICOVirtRealToken is Ownable, SafeMath {\n  address public wallet;\n  bool public emergencyFlagAndHiddenCap = false;\n  uint256 public startTime = 1507161601; // 05 Oct 2017 00:00:01 GMT\n  uint256 public endTime = 1509840001; // 05 Nov 2017 00:00:01 GMT\n                                // UNIX format\n  uint256 public USDto1ETH = 306; // 1 ether = 306$\n  uint256 public price; \n  uint256 public totalTokensSold = 0;\n  uint256 public constant maxTokensToSold = 192500000000000; // 35% * (550 000 000.000 000)\n  VirtRealToken public token;\n  function ICOVirtRealToken(address _owner, address _wallet, VirtRealToken _token) public {\n    owner = _owner;\n    wallet = _wallet;\n    token = _token;\n    price = 1 ether / USDto1ETH / 1000000;\n  }\n  function () public payable {\n    require(now <= endTime && now >= startTime);\n    require(!emergencyFlagAndHiddenCap);\n    require(totalTokensSold < maxTokensToSold);\n    uint256 value = msg.value;\n    require(value >= price); \n    uint256 tokensToSend = safeDiv(value, price);\n    uint256 valueToReturn = safeSub(value, tokensToSend * price);\n    uint256 valueToWallet = safeSub(value, valueToReturn);\n\n    if (valueToReturn > 0) {\n      msg.sender.transfer(valueToReturn);\n      }\n    wallet.transfer(valueToWallet);\n    token.privilegeTransfer(msg.sender, tokensToSend);\n    totalTokensSold += tokensToSend;\n  }\n    function ChangeUSDto1ETH(uint256 _USDto1ETH) onlyOwner public {\n        USDto1ETH = _USDto1ETH;\n        ChangePrice();\n    }\n    function ChangePrice() onlyOwner public {\n        uint256 priceWeiToUSD = 1 ether / USDto1ETH;\n        uint256 price1mToken = priceWeiToUSD / 1000000; // decimals = 6\n        if ( now <= startTime + 5 days) {\n            price = price1mToken; // 1.000000Token = 1$ first 5 days\n        } else {\n            if ( now <= startTime + 10 days ) {\n                price = price1mToken * 9 / 5; // 1.000000Token = 1.8$ next 5 days\n            } else {\n                price = price1mToken * 2; // 1.000000Token = 2$\n            }\n        }\n    }\n\n    function ChangeStart(uint _startTime) onlyOwner public {\n        startTime = _startTime;\n    }\n\n    function ChangeEnd(uint _endTime) onlyOwner public {\n        endTime = _endTime;\n    }\n    function emergencyAndHiddenCapToggle() onlyOwner public {\n        emergencyFlagAndHiddenCap = !emergencyFlagAndHiddenCap;\n    }\n}\n",
  "sourcePath": "/home/k/work/czech/vrt/contracts/ICOVirtRealToken.sol",
  "schemaVersion": "1.0.0",
  "updatedAt": "2017-10-13T11:11:43.385Z"
}