{
  "contractName": "SafeMathMock",
  "abi": [
    {
      "constant": false,
      "inputs": [
        {
          "name": "a",
          "type": "uint256"
        },
        {
          "name": "b",
          "type": "uint256"
        }
      ],
      "name": "multiply",
      "outputs": [],
      "payable": false,
      "stateMutability": "nonpayable",
      "type": "function"
    },
    {
      "constant": false,
      "inputs": [
        {
          "name": "a",
          "type": "uint256"
        },
        {
          "name": "b",
          "type": "uint256"
        }
      ],
      "name": "subtract",
      "outputs": [],
      "payable": false,
      "stateMutability": "nonpayable",
      "type": "function"
    },
    {
      "constant": true,
      "inputs": [],
      "name": "result",
      "outputs": [
        {
          "name": "",
          "type": "uint256"
        }
      ],
      "payable": false,
      "stateMutability": "view",
      "type": "function"
    },
    {
      "constant": false,
      "inputs": [
        {
          "name": "a",
          "type": "uint256"
        },
        {
          "name": "b",
          "type": "uint256"
        }
      ],
      "name": "add",
      "outputs": [],
      "payable": false,
      "stateMutability": "nonpayable",
      "type": "function"
    },
    {
      "constant": false,
      "inputs": [
        {
          "name": "a",
          "type": "uint256"
        },
        {
          "name": "b",
          "type": "uint256"
        }
      ],
      "name": "div",
      "outputs": [],
      "payable": false,
      "stateMutability": "nonpayable",
      "type": "function"
    }
  ],
  "bytecode": "0x6060604052341561000f57600080fd5b6101df8061001e6000396000f300606060405263ffffffff7c0100000000000000000000000000000000000000000000000000000000600035041663165c4a1681146100685780633ef5e44514610083578063653721471461009c578063771602f7146100c1578063a391c15b146100da57600080fd5b341561007357600080fd5b6100816004356024356100f3565b005b341561008e57600080fd5b610081600435602435610104565b34156100a757600080fd5b6100af61010e565b60405190815260200160405180910390f35b34156100cc57600080fd5b610081600435602435610114565b34156100e557600080fd5b61008160043560243561011e565b6100fd8282610128565b6000555050565b6100fd8282610153565b60005481565b6100fd8282610165565b6100fd828261017f565b6000828202831580610144575082848281151561014157fe5b04145b151561014c57fe5b9392505050565b60008282111561015f57fe5b50900390565b600082820183811080159061014457508281101561014c57fe5b60008080831161018b57fe5b828481151561019657fe5b04905082848115156101a457fe5b06818402018414151561014c57fe00a165627a7a723058205ca22ce4d38d3ebb74268149210f16388bb697cd33aaff15a997136a3f25b16d0029",
  "source": "// Based on code by OpenZeppelin\n// https://github.com/OpenZeppelin/zeppelin-solidity/blob/master/test/helpers/SafeMathMock.sol\n// It is for tests purpos\npragma solidity ^0.4.16;\n\nimport '../SafeMath.sol';\n\n\ncontract SafeMathMock is SafeMath {\n  uint256 public result;\n\n  function multiply(uint256 a, uint256 b) public {\n    result = safeMul(a, b);\n  }\n\n  function subtract(uint256 a, uint256 b) public {\n    result = safeSub(a, b);\n  }\n\n  function add(uint256 a, uint256 b) public {\n    result = safeAdd(a, b);\n  }\n  function div(uint256 a, uint256 b) public {\n    result = safeDiv(a, b);\n  }\n}\n",
  "sourcePath": "/home/k/work/czech/vrt/contracts/helpers/SafeMathMock.sol",
  "schemaVersion": "1.0.0",
  "updatedAt": "2017-10-14T13:31:27.118Z"
}