{
  "contractName": "StandardToken",
  "abi": [
    {
      "constant": false,
      "inputs": [
        {
          "name": "_spender",
          "type": "address"
        },
        {
          "name": "_value",
          "type": "uint256"
        }
      ],
      "name": "approve",
      "outputs": [
        {
          "name": "success",
          "type": "bool"
        }
      ],
      "payable": false,
      "stateMutability": "nonpayable",
      "type": "function"
    },
    {
      "constant": true,
      "inputs": [],
      "name": "totalSupply",
      "outputs": [
        {
          "name": "",
          "type": "uint256"
        }
      ],
      "payable": false,
      "stateMutability": "view",
      "type": "function"
    },
    {
      "constant": false,
      "inputs": [
        {
          "name": "_from",
          "type": "address"
        },
        {
          "name": "_to",
          "type": "address"
        },
        {
          "name": "_value",
          "type": "uint256"
        }
      ],
      "name": "transferFrom",
      "outputs": [
        {
          "name": "success",
          "type": "bool"
        }
      ],
      "payable": false,
      "stateMutability": "nonpayable",
      "type": "function"
    },
    {
      "constant": true,
      "inputs": [
        {
          "name": "_owner",
          "type": "address"
        }
      ],
      "name": "balanceOf",
      "outputs": [
        {
          "name": "balance",
          "type": "uint256"
        }
      ],
      "payable": false,
      "stateMutability": "view",
      "type": "function"
    },
    {
      "constant": false,
      "inputs": [
        {
          "name": "_to",
          "type": "address"
        },
        {
          "name": "_value",
          "type": "uint256"
        }
      ],
      "name": "transfer",
      "outputs": [
        {
          "name": "success",
          "type": "bool"
        }
      ],
      "payable": false,
      "stateMutability": "nonpayable",
      "type": "function"
    },
    {
      "constant": false,
      "inputs": [
        {
          "name": "_spender",
          "type": "address"
        },
        {
          "name": "_addedValue",
          "type": "uint256"
        }
      ],
      "name": "addApproval",
      "outputs": [
        {
          "name": "success",
          "type": "bool"
        }
      ],
      "payable": false,
      "stateMutability": "nonpayable",
      "type": "function"
    },
    {
      "constant": true,
      "inputs": [
        {
          "name": "_owner",
          "type": "address"
        },
        {
          "name": "_spender",
          "type": "address"
        }
      ],
      "name": "allowance",
      "outputs": [
        {
          "name": "remaining",
          "type": "uint256"
        }
      ],
      "payable": false,
      "stateMutability": "view",
      "type": "function"
    },
    {
      "constant": false,
      "inputs": [
        {
          "name": "_spender",
          "type": "address"
        },
        {
          "name": "_subtractedValue",
          "type": "uint256"
        }
      ],
      "name": "subApproval",
      "outputs": [
        {
          "name": "success",
          "type": "bool"
        }
      ],
      "payable": false,
      "stateMutability": "nonpayable",
      "type": "function"
    },
    {
      "anonymous": false,
      "inputs": [
        {
          "indexed": true,
          "name": "from",
          "type": "address"
        },
        {
          "indexed": true,
          "name": "to",
          "type": "address"
        },
        {
          "indexed": false,
          "name": "value",
          "type": "uint256"
        }
      ],
      "name": "Transfer",
      "type": "event"
    },
    {
      "anonymous": false,
      "inputs": [
        {
          "indexed": true,
          "name": "owner",
          "type": "address"
        },
        {
          "indexed": true,
          "name": "spender",
          "type": "address"
        },
        {
          "indexed": false,
          "name": "value",
          "type": "uint256"
        }
      ],
      "name": "Approval",
      "type": "event"
    }
  ],
  "bytecode": "0x6060604052341561000f57600080fd5b6106968061001e6000396000f3006060604052361561008b5763ffffffff7c0100000000000000000000000000000000000000000000000000000000600035041663095ea7b3811461009057806318160ddd146100c657806323b872dd146100eb57806370a0823114610113578063a9059cbb14610132578063ac3cb72c14610154578063dd62ed3e14610176578063e2301d021461019b575b600080fd5b341561009b57600080fd5b6100b2600160a060020a03600435166024356101bd565b604051901515815260200160405180910390f35b34156100d157600080fd5b6100d9610229565b60405190815260200160405180910390f35b34156100f657600080fd5b6100b2600160a060020a036004358116906024351660443561022f565b341561011e57600080fd5b6100d9600160a060020a0360043516610371565b341561013d57600080fd5b6100b2600160a060020a036004351660243561038c565b341561015f57600080fd5b6100b2600160a060020a0360043516602435610477565b341561018157600080fd5b6100d9600160a060020a0360043581169060243516610529565b34156101a657600080fd5b6100b2600160a060020a0360043516602435610554565b600160a060020a03338116600081815260026020908152604080832094871680845294909152808220859055909291907f8c5be1e5ebec7d5bd14f71427d1e84f3dd0314c0f7b2291e5b200ac8c7c3b9259085905190815260200160405180910390a350600192915050565b60005481565b60008080600160a060020a038516151561024857600080fd5b5050600160a060020a038085166000818152600260209081526040808320339095168352938152838220549282526001905291909120548084111561028c57600080fd5b8184111561029957600080fd5b600160a060020a0385166000908152600160205260409020546102bc9085610634565b600160a060020a0386166000908152600160205260409020556102df8185610658565b600160a060020a0387166000908152600160205260409020556103028285610658565b600160a060020a03808816600081815260026020908152604080832033861684529091529081902093909355908716917fddf252ad1be2c89b69c2b068fc378daa952ba7f163c4a11628f55a4df523b3ef9087905190815260200160405180910390a350600195945050505050565b600160a060020a031660009081526001602052604090205490565b60008060403660441461039e57600080fd5b600160a060020a03851615156103b357600080fd5b600160a060020a0333166000908152600160205260409020549150818411156103db57600080fd5b6103e58285610658565b600160a060020a0333811660009081526001602052604080822093909355908716815220546104149085610634565b600160a060020a0380871660008181526001602052604090819020939093559133909116907fddf252ad1be2c89b69c2b068fc378daa952ba7f163c4a11628f55a4df523b3ef9087905190815260200160405180910390a3506001949350505050565b60008060403660441461048957600080fd5b600160a060020a0333811660009081526002602090815260408083209389168352929052205491506104bb8285610634565b600160a060020a033381166000818152600260209081526040808320948b168084529490915290819020849055919290917f8c5be1e5ebec7d5bd14f71427d1e84f3dd0314c0f7b2291e5b200ac8c7c3b92591905190815260200160405180910390a3506001949350505050565b600160a060020a03918216600090815260026020908152604080832093909416825291909152205490565b60008060403660441461056657600080fd5b600160a060020a033381166000908152600260209081526040808320938916835292905220549150818411156105c357600160a060020a0333811660009081526002602090815260408083209389168352929052908120556105cd565b6104bb8285610658565b600160a060020a033381166000818152600260209081526040808320948a168084529490915290819020547f8c5be1e5ebec7d5bd14f71427d1e84f3dd0314c0f7b2291e5b200ac8c7c3b925915190815260200160405180910390a3506001949350505050565b60008282018381108015906106495750828110155b151561065157fe5b9392505050565b60008282111561066457fe5b509003905600a165627a7a7230582083dbea54f0842bc1d8e5f484a3f755d9e4891ca8094d87fcee31e795cd58a4f90029",
  "source": "pragma solidity ^0.4.16;\n\nimport \"./SafeMath.sol\";\n/**\n * Standard ERC20 token with Short Hand Attack and approve() race condition mitigation.\n *\n * Based on code by FirstBlood:\n * https://github.com/Firstbloodio/token/blob/master/smart_contract/FirstBloodToken.sol\n */\ncontract StandardToken is SafeMath {\n\n  uint256 public totalSupply;\n\n  /* Actual balances of token holders */\n  mapping(address => uint) balances;\n\n  /* approve() allowances */\n// ????? maybe mapping (address => mapping (address => uint256)) internal allowed\n  mapping (address => mapping (address => uint)) allowed;\n  event Transfer(address indexed from, address indexed to, uint256 value);\n  event Approval(address indexed owner, address indexed spender, uint256 value);\n  /**\n   *\n   * Fix for the ERC20 short address attack\n   *\n   * http://vessenes.com/the-erc20-short-address-attack-explained/\n   */\n  modifier onlyPayloadSize(uint256 size) {\n     require(msg.data.length == size + 4);\n     _;\n  }\n\n  function transfer(address _to, uint256 _value) onlyPayloadSize(2 * 32) public returns (bool success) {\n    require(_to != 0);\n    uint256 balanceFrom = balances[msg.sender];\n    require(_value <= balanceFrom);\n\n    // SafeMath safeSub will throw if there is not enough balance.\n    balances[msg.sender] = safeSub(balanceFrom, _value);\n    balances[_to] = safeAdd(balances[_to], _value);\n    Transfer(msg.sender, _to, _value);\n    return true;\n  }\n\n  function transferFrom(address _from, address _to, uint256 _value) public returns (bool success) {\n    require(_to != 0);\n    uint256 allowToTrans = allowed[_from][msg.sender];\n    uint256 balanceFrom = balances[_from];\n    require(_value <= balanceFrom);\n    require(_value <= allowToTrans);\n\n    balances[_to] = safeAdd(balances[_to], _value);\n    balances[_from] = safeSub(balanceFrom, _value);\n    allowed[_from][msg.sender] = safeSub(allowToTrans, _value);\n    Transfer(_from, _to, _value);\n    return true;\n  }\n\n  function balanceOf(address _owner) public view returns (uint256 balance) {\n    return balances[_owner];\n  }\n\n  function approve(address _spender, uint256 _value) public returns (bool success) {\n\n    // To change the approve amount you first have to reduce the addresses`\n    //  allowance to zero by calling `approve(_spender, 0)` if it is not\n    //  already 0 to mitigate the race condition described here:\n    //  https://github.com/ethereum/EIPs/issues/20#issuecomment-263524729\n//???Chek this stuff\n//    if ((_value != 0) && (allowed[msg.sender][_spender] != 0)) throw;\n//    require();\n\n    allowed[msg.sender][_spender] = _value;\n    Approval(msg.sender, _spender, _value);\n    return true;\n  }\n\n  function allowance(address _owner, address _spender) public view returns (uint256 remaining) {\n    return allowed[_owner][_spender];\n  }\n\n  /**\n   * Atomic increment of approved spending\n   *\n   * Works around https://github.com/ethereum/EIPs/issues/20#issuecomment-263524729\n   *\n   */\n  function addApproval(address _spender, uint256 _addedValue)\n  onlyPayloadSize(2 * 32)\n  public returns (bool success) {\n      uint256 oldValue = allowed[msg.sender][_spender];\n      allowed[msg.sender][_spender] = safeAdd(oldValue, _addedValue);\n      Approval(msg.sender, _spender, allowed[msg.sender][_spender]);\n      return true;\n  }\n\n  /**\n   * Atomic decrement of approved spending.\n   *\n   * Works around https://github.com/ethereum/EIPs/issues/20#issuecomment-263524729\n   */\n  function subApproval(address _spender, uint256 _subtractedValue)\n  onlyPayloadSize(2 * 32)\n  public returns (bool success) {\n\n      uint256 oldVal = allowed[msg.sender][_spender];\n\n      if (_subtractedValue > oldVal) {\n          allowed[msg.sender][_spender] = 0;\n      } else {\n          allowed[msg.sender][_spender] = safeSub(oldVal, _subtractedValue);\n      }\n      Approval(msg.sender, _spender, allowed[msg.sender][_spender]);\n      return true;\n  }\n\n}\n",
  "sourcePath": "/home/k/work/czech/vrt/contracts/StandardToken.sol",
  "schemaVersion": "1.0.0",
  "updatedAt": "2017-10-14T13:31:27.340Z"
}