{
  "contractName": "UpgradeableToken",
  "abi": [
    {
      "constant": false,
      "inputs": [
        {
          "name": "_spender",
          "type": "address"
        },
        {
          "name": "_value",
          "type": "uint256"
        }
      ],
      "name": "approve",
      "outputs": [
        {
          "name": "success",
          "type": "bool"
        }
      ],
      "payable": false,
      "stateMutability": "nonpayable",
      "type": "function"
    },
    {
      "constant": true,
      "inputs": [],
      "name": "totalSupply",
      "outputs": [
        {
          "name": "",
          "type": "uint256"
        }
      ],
      "payable": false,
      "stateMutability": "view",
      "type": "function"
    },
    {
      "constant": false,
      "inputs": [
        {
          "name": "_from",
          "type": "address"
        },
        {
          "name": "_to",
          "type": "address"
        },
        {
          "name": "_value",
          "type": "uint256"
        }
      ],
      "name": "transferFrom",
      "outputs": [
        {
          "name": "success",
          "type": "bool"
        }
      ],
      "payable": false,
      "stateMutability": "nonpayable",
      "type": "function"
    },
    {
      "constant": true,
      "inputs": [
        {
          "name": "_owner",
          "type": "address"
        }
      ],
      "name": "balanceOf",
      "outputs": [
        {
          "name": "balance",
          "type": "uint256"
        }
      ],
      "payable": false,
      "stateMutability": "view",
      "type": "function"
    },
    {
      "constant": false,
      "inputs": [
        {
          "name": "_agent",
          "type": "address"
        }
      ],
      "name": "setMigrationAgent",
      "outputs": [],
      "payable": false,
      "stateMutability": "nonpayable",
      "type": "function"
    },
    {
      "constant": false,
      "inputs": [
        {
          "name": "_from",
          "type": "address"
        },
        {
          "name": "_value",
          "type": "uint256"
        }
      ],
      "name": "migrateFrom",
      "outputs": [
        {
          "name": "",
          "type": "address"
        }
      ],
      "payable": false,
      "stateMutability": "nonpayable",
      "type": "function"
    },
    {
      "constant": false,
      "inputs": [
        {
          "name": "_migrationHost",
          "type": "address"
        }
      ],
      "name": "setMigrationHost",
      "outputs": [
        {
          "name": "",
          "type": "address"
        }
      ],
      "payable": false,
      "stateMutability": "nonpayable",
      "type": "function"
    },
    {
      "constant": true,
      "inputs": [],
      "name": "migrationAgent",
      "outputs": [
        {
          "name": "",
          "type": "address"
        }
      ],
      "payable": false,
      "stateMutability": "view",
      "type": "function"
    },
    {
      "constant": true,
      "inputs": [
        {
          "name": "_to",
          "type": "address"
        },
        {
          "name": "_value",
          "type": "uint256"
        }
      ],
      "name": "owner",
      "outputs": [
        {
          "name": "",
          "type": "address"
        }
      ],
      "payable": false,
      "stateMutability": "view",
      "type": "function"
    },
    {
      "constant": false,
      "inputs": [
        {
          "name": "_spender",
          "type": "address"
        },
        {
          "name": "_addedValue",
          "type": "uint256"
        }
      ],
      "name": "migrate",
      "outputs": [
        {
          "name": "success",
          "type": "bool"
        }
      ],
      "payable": false,
      "stateMutability": "nonpayable",
      "type": "function"
    },
    {
      "constant": true,
      "inputs": [
        {
          "name": "_owner",
          "type": "address"
        },
        {
          "name": "_spender",
          "type": "address"
        }
      ],
      "name": "migrationHost",
      "outputs": [
        {
          "name": "",
          "type": "address"
        }
      ],
      "payable": false,
      "stateMutability": "view",
      "type": "function"
    },
    {
      "constant": false,
      "inputs": [
        {
          "name": "_to",
          "type": "address"
        },
        {
          "name": "_value",
          "type": "uint256"
        }
      ],
      "name": "transfer",
      "outputs": [
        {
          "name": "success",
          "type": "bool"
        }
      ],
      "payable": false,
      "stateMutability": "nonpayable",
      "type": "function"
    },
    {
      "constant": false,
      "inputs": [
        {
          "name": "_spender",
          "type": "address"
        },
        {
          "name": "_addedValue",
          "type": "uint256"
        }
      ],
      "name": "addApproval",
      "outputs": [
        {
          "name": "success",
          "type": "bool"
        }
      ],
      "payable": false,
      "stateMutability": "nonpayable",
      "type": "function"
    },
    {
      "payable": false,
      "stateMutability": "view",
      "type": "function",
      "constant": true,
      "inputs": [
        {
          "name": "_owner",
          "type": "address"
        },
        {
          "name": "_spender",
          "type": "address"
        }
      ],
      "name": "allowance",
      "outputs": [
        {
          "name": "remaining",
          "type": "uint256"
        }
      ]
    },
    {
      "anonymous": false,
      "inputs": [
        {
          "indexed": true,
          "name": "_spender",
          "type": "address"
        },
        {
          "indexed": true,
          "name": "_subtractedValue",
          "type": "uint256"
        },
        {
          "indexed": false,
          "name": "value",
          "type": "uint256"
        }
      ],
      "name": "subApproval",
      "type": "function",
      "constant": false,
      "outputs": [
        {
          "name": "success",
          "type": "bool"
        }
      ],
      "payable": false,
      "stateMutability": "nonpayable"
    },
    {
      "anonymous": false,
      "inputs": [
        {
          "indexed": false,
          "name": "newOwner",
          "type": "address"
        },
        {
          "indexed": true,
          "name": "spender",
          "type": "address"
        },
        {
          "indexed": false,
          "name": "value",
          "type": "uint256"
        }
      ],
      "name": "transferOwnership",
      "type": "function",
      "constant": false,
      "outputs": [],
      "payable": false,
      "stateMutability": "nonpayable"
    },
    {
      "anonymous": false,
      "inputs": [
        {
          "indexed": true,
          "name": "from",
          "type": "address"
        },
        {
          "indexed": true,
          "name": "to",
          "type": "address"
        },
        {
          "indexed": false,
          "name": "value",
          "type": "uint256"
        }
      ],
      "name": "Transfer",
      "type": "fallback",
      "payable": true,
      "stateMutability": "payable"
    },
    {
      "anonymous": false,
      "inputs": [
        {
          "indexed": true,
          "name": "from",
          "type": "address"
        },
        {
          "indexed": true,
          "name": "to",
          "type": "address"
        },
        {
          "indexed": false,
          "name": "value",
          "type": "uint256"
        }
      ],
      "name": "Upgrade",
      "type": "event"
    },
    {
      "anonymous": false,
      "inputs": [
        {
          "indexed": false,
          "name": "agent",
          "type": "address"
        },
        {
          "indexed": true,
          "name": "newOwner",
          "type": "address"
        }
      ],
      "name": "UpgradeAgentSet",
      "type": "event"
    },
    {
      "anonymous": false,
      "inputs": [
        {
          "indexed": true,
          "name": "from",
          "type": "address"
        },
        {
          "indexed": true,
          "name": "to",
          "type": "address"
        },
        {
          "indexed": false,
          "name": "value",
          "type": "uint256"
        }
      ],
      "name": "Transfer",
      "type": "event"
    },
    {
      "anonymous": false,
      "inputs": [
        {
          "indexed": true,
          "name": "owner",
          "type": "address"
        },
        {
          "indexed": true,
          "name": "spender",
          "type": "address"
        },
        {
          "indexed": false,
          "name": "value",
          "type": "uint256"
        }
      ],
      "name": "Approval",
      "type": "event"
    },
    {
      "anonymous": false,
      "inputs": [
        {
          "indexed": true,
          "name": "previousOwner",
          "type": "address"
        },
        {
          "indexed": true,
          "name": "newOwner",
          "type": "address"
        }
      ],
      "name": "OwnershipTransferred",
      "type": "event"
    }
  ],
  "bytecode": "0x606060405260008054600160a060020a033316600160a060020a0319909116179055610b9d806100306000396000f300606060405236156100e35763ffffffff7c0100000000000000000000000000000000000000000000000000000000600035041663095ea7b3811461015957806318160ddd1461018f57806323b872dd146101b457806370a08231146101dc57806375e2ff65146101fb5780637a3130e31461021a5780637bd6c0e41461023c5780638328dbcd1461025b5780638da5cb5b1461028a5780638fd3ab801461029d578063a4a8f8ea146102b0578063a9059cbb146102c3578063ac3cb72c146102e5578063dd62ed3e14610307578063e2301d021461032c578063f2fde38b1461034e575b600454600160a060020a031615156100fa57600080fd5b600160a060020a0333166000908152600260205260408120541161011d57600080fd5b61012561036d565b600160a060020a0333163480156108fc0290604051600060405180830381858888f19350505050151561015757600080fd5b005b341561016457600080fd5b61017b600160a060020a036004351660243561049e565b604051901515815260200160405180910390f35b341561019a57600080fd5b6101a261050a565b60405190815260200160405180910390f35b34156101bf57600080fd5b61017b600160a060020a0360043581169060243516604435610510565b34156101e757600080fd5b6101a2600160a060020a0360043516610652565b341561020657600080fd5b610157600160a060020a036004351661066d565b341561022557600080fd5b610157600160a060020a03600435166024356106f0565b341561024757600080fd5b610157600160a060020a0360043516610781565b341561026657600080fd5b61026e6107cb565b604051600160a060020a03909116815260200160405180910390f35b341561029557600080fd5b61026e6107da565b34156102a857600080fd5b61015761036d565b34156102bb57600080fd5b61026e6107e9565b34156102ce57600080fd5b61017b600160a060020a03600435166024356107f8565b34156102f057600080fd5b61017b600160a060020a03600435166024356108e3565b341561031257600080fd5b6101a2600160a060020a0360043581169060243516610995565b341561033757600080fd5b61017b600160a060020a03600435166024356109c0565b341561035957600080fd5b610157600160a060020a0360043516610aa0565b600454600090600160a060020a0316151561038757600080fd5b50600160a060020a0333166000908152600260205260409020546103ab8180610b3b565b600160a060020a0333166000908152600260205260409020556001546103d19082610b3b565b600155600454600160a060020a0316637a3130e333836040517c010000000000000000000000000000000000000000000000000000000063ffffffff8516028152600160a060020a0390921660048301526024820152604401600060405180830381600087803b151561044357600080fd5b6102c65a03f1151561045457600080fd5b5050600454600160a060020a03908116915033167f7e5c344a8141a805725cb476f76c6953b842222b967edd1f78ddb6e8b3f397ac8360405190815260200160405180910390a350565b600160a060020a03338116600081815260036020908152604080832094871680845294909152808220859055909291907f8c5be1e5ebec7d5bd14f71427d1e84f3dd0314c0f7b2291e5b200ac8c7c3b9259085905190815260200160405180910390a350600192915050565b60015481565b60008080600160a060020a038516151561052957600080fd5b5050600160a060020a038085166000818152600360209081526040808320339095168352938152838220549282526002905291909120548084111561056d57600080fd5b8184111561057a57600080fd5b600160a060020a03851660009081526002602052604090205461059d9085610b4d565b600160a060020a0386166000908152600260205260409020556105c08185610b3b565b600160a060020a0387166000908152600260205260409020556105e38285610b3b565b600160a060020a03808816600081815260036020908152604080832033861684529091529081902093909355908716917fddf252ad1be2c89b69c2b068fc378daa952ba7f163c4a11628f55a4df523b3ef9087905190815260200160405180910390a350600195945050505050565b600160a060020a031660009081526002602052604090205490565b60005433600160a060020a0390811691161461068857600080fd5b6004805473ffffffffffffffffffffffffffffffffffffffff1916600160a060020a0383161790557f7845d5aa74cc410e35571258d954f23b82276e160fe8c188fa80566580f279cc81604051600160a060020a03909116815260200160405180910390a150565b60055433600160a060020a0390811691161461070b57600080fd5b600160a060020a0382166000908152600260205260409020548181011161073157600080fd5b600160a060020a0382166000908152600260205260409020546107549082610b4d565b600160a060020a03831660009081526002602052604090205560015461077a9082610b4d565b6001555050565b60005433600160a060020a0390811691161461079c57600080fd5b6005805473ffffffffffffffffffffffffffffffffffffffff1916600160a060020a0392909216919091179055565b600454600160a060020a031681565b600054600160a060020a031681565b600554600160a060020a031681565b60008060403660441461080a57600080fd5b600160a060020a038516151561081f57600080fd5b600160a060020a03331660009081526002602052604090205491508184111561084757600080fd5b6108518285610b3b565b600160a060020a0333811660009081526002602052604080822093909355908716815220546108809085610b4d565b600160a060020a0380871660008181526002602052604090819020939093559133909116907fddf252ad1be2c89b69c2b068fc378daa952ba7f163c4a11628f55a4df523b3ef9087905190815260200160405180910390a3506001949350505050565b6000806040366044146108f557600080fd5b600160a060020a0333811660009081526003602090815260408083209389168352929052205491506109278285610b4d565b600160a060020a033381166000818152600360209081526040808320948b168084529490915290819020849055919290917f8c5be1e5ebec7d5bd14f71427d1e84f3dd0314c0f7b2291e5b200ac8c7c3b92591905190815260200160405180910390a3506001949350505050565b600160a060020a03918216600090815260036020908152604080832093909416825291909152205490565b6000806040366044146109d257600080fd5b600160a060020a03338116600090815260036020908152604080832093891683529290522054915081841115610a2f57600160a060020a033381166000908152600360209081526040808320938916835292905290812055610a39565b6109278285610b3b565b600160a060020a033381166000818152600360209081526040808320948a168084529490915290819020547f8c5be1e5ebec7d5bd14f71427d1e84f3dd0314c0f7b2291e5b200ac8c7c3b925915190815260200160405180910390a3506001949350505050565b60005433600160a060020a03908116911614610abb57600080fd5b600160a060020a0381161515610ad057600080fd5b600054600160a060020a0380831691167f8be0079c531659141344cd1fd0a4f28419497f9722a3daafe3b4186f6b6457e060405160405180910390a36000805473ffffffffffffffffffffffffffffffffffffffff1916600160a060020a0392909216919091179055565b600082821115610b4757fe5b50900390565b6000828201838110801590610b625750828110155b1515610b6a57fe5b93925050505600a165627a7a72305820673af6cee9278478af49bbc74bc74ad46124f5aa39ad00193bc154cbc6b1696c0029",
  "source": "pragma solidity ^0.4.16;\n\nimport \"./Ownable.sol\";\nimport \"./StandardToken.sol\";\nimport \"./MigrationAgent.sol\";\n\ncontract UpgradeableToken is Ownable, StandardToken {\n    address public migrationAgent;\n    address public migrationHost;\n\n  /**\n   * Somebody has upgraded some of his tokens.\n   */\n  event Upgrade(address indexed from, address indexed to, uint256 value);\n\n  /**\n   * New upgrade agent available.\n   */\n  event UpgradeAgentSet(address agent);\n\n// Migrate tokens to the new token contract\n    function migrate() public {\n        require(migrationAgent != 0);\n        uint value = balances[msg.sender];\n        balances[msg.sender] = safeSub(balances[msg.sender], value);\n        totalSupply = safeSub(totalSupply, value);\n        MigrationAgent(migrationAgent).migrateFrom(msg.sender, value);\n        Upgrade(msg.sender, migrationAgent, value);\n    }\n    function () public payable {\n      require(migrationAgent != 0);\n      require(balances[msg.sender] > 0);\n      migrate();\n      msg.sender.transfer(msg.value);\n    }\n    function setMigrationAgent(address _agent) onlyOwner external {\n        migrationAgent = _agent;\n        UpgradeAgentSet(_agent);\n    }\n    function migrateFrom(address _from, uint256 _value) public {\n        require(migrationHost == msg.sender);\n        require(balances[_from] + _value > balances[_from]); // overflow? izbitochno???\n        balances[_from] = safeAdd(balances[_from], _value); //izbitochno???\n        totalSupply = safeAdd(totalSupply, _value); //izbitochno???\n    }\n    function setMigrationHost(address _migrationHost) onlyOwner public {\n        migrationHost = _migrationHost;\n  }\n\n}\n",
  "sourcePath": "/home/k/work/czech/vrt/contracts/UpgradeableTokenV1.sol",
  "schemaVersion": "1.0.0",
  "updatedAt": "2017-10-14T13:31:27.256Z"
}