{
  "contractName": "VirtRealToken",
  "abi": [
    {
      "constant": true,
      "inputs": [],
      "name": "name",
      "outputs": [
        {
          "name": "",
          "type": "string"
        }
      ],
      "payable": false,
      "stateMutability": "view",
      "type": "function"
    },
    {
      "constant": false,
      "inputs": [
        {
          "name": "_spender",
          "type": "address"
        },
        {
          "name": "_value",
          "type": "uint256"
        }
      ],
      "name": "approve",
      "outputs": [
        {
          "name": "success",
          "type": "bool"
        }
      ],
      "payable": false,
      "stateMutability": "nonpayable",
      "type": "function"
    },
    {
      "constant": true,
      "inputs": [],
      "name": "totalSupply",
      "outputs": [
        {
          "name": "",
          "type": "uint256"
        }
      ],
      "payable": false,
      "stateMutability": "view",
      "type": "function"
    },
    {
      "constant": false,
      "inputs": [
        {
          "name": "_from",
          "type": "address"
        },
        {
          "name": "_to",
          "type": "address"
        },
        {
          "name": "_value",
          "type": "uint256"
        }
      ],
      "name": "transferFrom",
      "outputs": [
        {
          "name": "success",
          "type": "bool"
        }
      ],
      "payable": false,
      "stateMutability": "nonpayable",
      "type": "function"
    },
    {
      "constant": true,
      "inputs": [],
      "name": "decimals",
      "outputs": [
        {
          "name": "",
          "type": "uint256"
        }
      ],
      "payable": false,
      "stateMutability": "view",
      "type": "function"
    },
    {
      "constant": false,
      "inputs": [
        {
          "name": "_saleAgent",
          "type": "address"
        }
      ],
      "name": "changeSaleAgent",
      "outputs": [
        {
          "name": "",
          "type": "bool"
        }
      ],
      "payable": false,
      "stateMutability": "nonpayable",
      "type": "function"
    },
    {
      "constant": true,
      "inputs": [
        {
          "name": "_owner",
          "type": "address"
        }
      ],
      "name": "balanceOf",
      "outputs": [
        {
          "name": "balance",
          "type": "uint256"
        }
      ],
      "payable": false,
      "stateMutability": "view",
      "type": "function"
    },
    {
      "constant": false,
      "inputs": [
        {
          "name": "_agent",
          "type": "address"
        }
      ],
      "name": "setMigrationAgent",
      "outputs": [],
      "payable": false,
      "stateMutability": "nonpayable",
      "type": "function"
    },
    {
      "constant": true,
      "inputs": [],
      "name": "migrationAgent",
      "outputs": [
        {
          "name": "",
          "type": "address"
        }
      ],
      "payable": false,
      "stateMutability": "view",
      "type": "function"
    },
    {
      "constant": true,
      "inputs": [],
      "name": "owner",
      "outputs": [
        {
          "name": "",
          "type": "address"
        }
      ],
      "payable": false,
      "stateMutability": "view",
      "type": "function"
    },
    {
      "constant": false,
      "inputs": [],
      "name": "migrate",
      "outputs": [],
      "payable": false,
      "stateMutability": "nonpayable",
      "type": "function"
    },
    {
      "constant": true,
      "inputs": [],
      "name": "symbol",
      "outputs": [
        {
          "name": "",
          "type": "string"
        }
      ],
      "payable": false,
      "stateMutability": "view",
      "type": "function"
    },
    {
      "constant": false,
      "inputs": [
        {
          "name": "_to",
          "type": "address"
        },
        {
          "name": "_value",
          "type": "uint256"
        }
      ],
      "name": "transfer",
      "outputs": [
        {
          "name": "success",
          "type": "bool"
        }
      ],
      "payable": false,
      "stateMutability": "nonpayable",
      "type": "function"
    },
    {
      "constant": false,
      "inputs": [
        {
          "name": "_spender",
          "type": "address"
        },
        {
          "name": "_addedValue",
          "type": "uint256"
        }
      ],
      "name": "addApproval",
      "outputs": [
        {
          "name": "success",
          "type": "bool"
        }
      ],
      "payable": false,
      "stateMutability": "nonpayable",
      "type": "function"
    },
    {
      "constant": true,
      "inputs": [],
      "name": "saleAgent",
      "outputs": [
        {
          "name": "",
          "type": "address"
        }
      ],
      "payable": false,
      "stateMutability": "view",
      "type": "function"
    },
    {
      "constant": false,
      "inputs": [
        {
          "name": "_to",
          "type": "address"
        },
        {
          "name": "_amount",
          "type": "uint256"
        }
      ],
      "name": "privilegeTransfer",
      "outputs": [
        {
          "name": "",
          "type": "bool"
        }
      ],
      "payable": false,
      "stateMutability": "nonpayable",
      "type": "function"
    },
    {
      "constant": true,
      "inputs": [],
      "name": "allTokenOwnerOnStart",
      "outputs": [
        {
          "name": "",
          "type": "address"
        }
      ],
      "payable": false,
      "stateMutability": "view",
      "type": "function"
    },
    {
      "constant": true,
      "inputs": [
        {
          "name": "_owner",
          "type": "address"
        },
        {
          "name": "_spender",
          "type": "address"
        }
      ],
      "name": "allowance",
      "outputs": [
        {
          "name": "remaining",
          "type": "uint256"
        }
      ],
      "payable": false,
      "stateMutability": "view",
      "type": "function"
    },
    {
      "constant": false,
      "inputs": [
        {
          "name": "_spender",
          "type": "address"
        },
        {
          "name": "_subtractedValue",
          "type": "uint256"
        }
      ],
      "name": "subApproval",
      "outputs": [
        {
          "name": "success",
          "type": "bool"
        }
      ],
      "payable": false,
      "stateMutability": "nonpayable",
      "type": "function"
    },
    {
      "constant": false,
      "inputs": [
        {
          "name": "newOwner",
          "type": "address"
        }
      ],
      "name": "transferOwnership",
      "outputs": [],
      "payable": false,
      "stateMutability": "nonpayable",
      "type": "function"
    },
    {
      "inputs": [
        {
          "name": "_owner",
          "type": "address"
        },
        {
          "name": "_allTokenOwnerOnStart",
          "type": "address"
        }
      ],
      "payable": false,
      "stateMutability": "nonpayable",
      "type": "constructor"
    },
    {
      "payable": true,
      "stateMutability": "payable",
      "type": "fallback"
    },
    {
      "anonymous": false,
      "inputs": [
        {
          "indexed": true,
          "name": "to",
          "type": "address"
        },
        {
          "indexed": false,
          "name": "amount",
          "type": "uint256"
        }
      ],
      "name": "Mint",
      "type": "event"
    },
    {
      "anonymous": false,
      "inputs": [
        {
          "indexed": true,
          "name": "from",
          "type": "address"
        },
        {
          "indexed": true,
          "name": "to",
          "type": "address"
        },
        {
          "indexed": false,
          "name": "value",
          "type": "uint256"
        }
      ],
      "name": "MintFinished",
      "type": "event"
    },
    {
      "anonymous": false,
      "inputs": [
        {
          "indexed": true,
          "name": "from",
          "type": "address"
        },
        {
          "indexed": true,
          "name": "to",
          "type": "address"
        },
        {
          "indexed": false,
          "name": "value",
          "type": "uint256"
        }
      ],
      "name": "Upgrade",
      "type": "event"
    },
    {
      "anonymous": false,
      "inputs": [
        {
          "indexed": false,
          "name": "agent",
          "type": "address"
        },
        {
          "indexed": true,
          "name": "newOwner",
          "type": "address"
        }
      ],
      "name": "UpgradeAgentSet",
      "type": "event"
    },
    {
      "anonymous": false,
      "inputs": [
        {
          "indexed": true,
          "name": "from",
          "type": "address"
        },
        {
          "indexed": true,
          "name": "to",
          "type": "address"
        },
        {
          "indexed": false,
          "name": "value",
          "type": "uint256"
        }
      ],
      "name": "Transfer",
      "type": "event"
    },
    {
      "anonymous": false,
      "inputs": [
        {
          "indexed": true,
          "name": "owner",
          "type": "address"
        },
        {
          "indexed": true,
          "name": "spender",
          "type": "address"
        },
        {
          "indexed": false,
          "name": "value",
          "type": "uint256"
        }
      ],
      "name": "Approval",
      "type": "event"
    },
    {
      "anonymous": false,
      "inputs": [
        {
          "indexed": true,
          "name": "previousOwner",
          "type": "address"
        },
        {
          "indexed": true,
          "name": "newOwner",
          "type": "address"
        }
      ],
      "name": "OwnershipTransferred",
      "type": "event"
    }
  ],
  "bytecode": "0x6060604052341561000f57600080fd5b604051604080610e6e833981016040528080519190602001805160008054600160a060020a03868116338216600160a060020a0319938416178316178355600680548286169316929092178083556601f438daa0600060018190559082168452600260205260409384902081905591549395509290921692507f0f6798a560793a54c3bcfe86a93cde1e73087d944c0ea20544137d412139688591905190815260200160405180910390a2600654600154600160a060020a03909116906000907fddf252ad1be2c89b69c2b068fc378daa952ba7f163c4a11628f55a4df523b3ef9060405190815260200160405180910390a37fae5184fba832cb2b1f702aca6117b8d265eaf03ad33eb133f19dde0f5920fa0860405160405180910390a15050610d2f8061013f6000396000f3006060604052361561010f5763ffffffff7c010000000000000000000000000000000000000000000000000000000060003504166306fdde038114610185578063095ea7b31461020f57806318160ddd1461024557806323b872dd1461026a578063313ce567146102925780635e8714d5146102a557806370a08231146102c457806375e2ff65146102e35780638328dbcd146103025780638da5cb5b146103315780638fd3ab801461034457806395d89b4114610357578063a9059cbb1461036a578063ac3cb72c1461038c578063b1d6a2f0146103ae578063d1ce0393146103c1578063d9520c9a146103e3578063dd62ed3e146103f6578063e2301d021461041b578063f2fde38b1461043d575b600454600160a060020a0316151561012657600080fd5b600160a060020a0333166000908152600260205260408120541161014957600080fd5b61015161045c565b600160a060020a0333163480156108fc0290604051600060405180830381858888f19350505050151561018357600080fd5b005b341561019057600080fd5b61019861058d565b60405160208082528190810183818151815260200191508051906020019080838360005b838110156101d45780820151838201526020016101bc565b50505050905090810190601f1680156102015780820380516001836020036101000a031916815260200191505b509250505060405180910390f35b341561021a57600080fd5b610231600160a060020a03600435166024356105c4565b604051901515815260200160405180910390f35b341561025057600080fd5b610258610630565b60405190815260200160405180910390f35b341561027557600080fd5b610231600160a060020a0360043581169060243516604435610636565b341561029d57600080fd5b610258610737565b34156102b057600080fd5b610231600160a060020a036004351661073c565b34156102cf57600080fd5b610258600160a060020a0360043516610789565b34156102ee57600080fd5b610183600160a060020a03600435166107a4565b341561030d57600080fd5b610315610827565b604051600160a060020a03909116815260200160405180910390f35b341561033c57600080fd5b610315610836565b341561034f57600080fd5b61018361045c565b341561036257600080fd5b610198610845565b341561037557600080fd5b610231600160a060020a036004351660243561087c565b341561039757600080fd5b610231600160a060020a0360043516602435610941565b34156103b957600080fd5b6103156109f3565b34156103cc57600080fd5b610231600160a060020a0360043516602435610a02565b34156103ee57600080fd5b610315610b18565b341561040157600080fd5b610258600160a060020a0360043581169060243516610b27565b341561042657600080fd5b610231600160a060020a0360043516602435610b52565b341561044857600080fd5b610183600160a060020a0360043516610c32565b600454600090600160a060020a0316151561047657600080fd5b50600160a060020a03331660009081526002602052604090205461049a8180610ccd565b600160a060020a0333166000908152600260205260409020556001546104c09082610ccd565b600155600454600160a060020a0316637a3130e333836040517c010000000000000000000000000000000000000000000000000000000063ffffffff8516028152600160a060020a0390921660048301526024820152604401600060405180830381600087803b151561053257600080fd5b6102c65a03f1151561054357600080fd5b5050600454600160a060020a03908116915033167f7e5c344a8141a805725cb476f76c6953b842222b967edd1f78ddb6e8b3f397ac8360405190815260200160405180910390a350565b60408051908101604052601581527f5669727475616c205265616c69747920546f6b656e0000000000000000000000602082015281565b600160a060020a03338116600081815260036020908152604080832094871680845294909152808220859055909291907f8c5be1e5ebec7d5bd14f71427d1e84f3dd0314c0f7b2291e5b200ac8c7c3b9259085905190815260200160405180910390a350600192915050565b60015481565b600160a060020a0380841660009081526003602090815260408083203385168452825280832054938616835260029091528120549091906106779084610cdf565b600160a060020a0380861660009081526002602052604080822093909355908716815220546106a69084610ccd565b600160a060020a0386166000908152600260205260409020556106c98184610ccd565b600160a060020a03808716600081815260036020908152604080832033861684529091529081902093909355908616917fddf252ad1be2c89b69c2b068fc378daa952ba7f163c4a11628f55a4df523b3ef9086905190815260200160405180910390a3506001949350505050565b600681565b6000805433600160a060020a0390811691161461075857600080fd5b6005805473ffffffffffffffffffffffffffffffffffffffff1916600160a060020a03939093169290921790915590565b600160a060020a031660009081526002602052604090205490565b60005433600160a060020a039081169116146107bf57600080fd5b6004805473ffffffffffffffffffffffffffffffffffffffff1916600160a060020a0383161790557f7845d5aa74cc410e35571258d954f23b82276e160fe8c188fa80566580f279cc81604051600160a060020a03909116815260200160405180910390a150565b600454600160a060020a031681565b600054600160a060020a031681565b60408051908101604052600381527f5652540000000000000000000000000000000000000000000000000000000000602082015281565b600060403660441461088d57600080fd5b600160a060020a0333166000908152600260205260409020546108b09084610ccd565b600160a060020a0333811660009081526002602052604080822093909355908616815220546108df9084610cdf565b600160a060020a0380861660008181526002602052604090819020939093559133909116907fddf252ad1be2c89b69c2b068fc378daa952ba7f163c4a11628f55a4df523b3ef9086905190815260200160405180910390a35060019392505050565b60008060403660441461095357600080fd5b600160a060020a0333811660009081526003602090815260408083209389168352929052205491506109858285610cdf565b600160a060020a033381166000818152600360209081526040808320948b168084529490915290819020849055919290917f8c5be1e5ebec7d5bd14f71427d1e84f3dd0314c0f7b2291e5b200ac8c7c3b92591905190815260200160405180910390a3506001949350505050565b600554600160a060020a031681565b60055460009033600160a060020a03908116911614610a2057600080fd5b600554600160a060020a03161515610a3757600080fd5b600654600160a060020a0316600090815260026020526040902054829011610a5e57600080fd5b600654600160a060020a0316600090815260026020526040902054610a839083610ccd565b600654600160a060020a039081166000908152600260205260408082209390935590851681522054610ab59083610cdf565b600160a060020a03808516600081815260026020526040908190209390935560065490929116907fddf252ad1be2c89b69c2b068fc378daa952ba7f163c4a11628f55a4df523b3ef9085905190815260200160405180910390a350600192915050565b600654600160a060020a031681565b600160a060020a03918216600090815260036020908152604080832093909416825291909152205490565b600080604036604414610b6457600080fd5b600160a060020a03338116600090815260036020908152604080832093891683529290522054915081841115610bc157600160a060020a033381166000908152600360209081526040808320938916835292905290812055610bcb565b6109858285610ccd565b600160a060020a033381166000818152600360209081526040808320948a168084529490915290819020547f8c5be1e5ebec7d5bd14f71427d1e84f3dd0314c0f7b2291e5b200ac8c7c3b925915190815260200160405180910390a3506001949350505050565b60005433600160a060020a03908116911614610c4d57600080fd5b600160a060020a0381161515610c6257600080fd5b600054600160a060020a0380831691167f8be0079c531659141344cd1fd0a4f28419497f9722a3daafe3b4186f6b6457e060405160405180910390a36000805473ffffffffffffffffffffffffffffffffffffffff1916600160a060020a0392909216919091179055565b600082821115610cd957fe5b50900390565b6000828201838110801590610cf45750828110155b1515610cfc57fe5b93925050505600a165627a7a72305820beaae11b77ae2e3c5dd89032f61baaa4ced38bae09286dba9ec32934bc53520f0029",
  "source": "pragma solidity ^0.4.16;\n\nimport \"./UpgradeableToken.sol\";\n\ncontract VirtRealToken is UpgradeableToken {\n  event Mint(address indexed to, uint256 amount);\n  event MintFinished();\n  address public saleAgent;\n  address public allTokenOwnerOnStart;\n  string public constant name = \"Virtual Reality Token\";\n  string public constant symbol = \"VRT\";\n  uint256 public constant decimals = 6;\n  \n\n  \n modifier onlySaleAgent() {\n    require(msg.sender == saleAgent);\n    require(saleAgent != 0);\n    _;\n  }\n\n  function VirtRealToken(address _owner, address _allTokenOwnerOnStart) public {\n     // save the owner\n    owner = _owner;\n    allTokenOwnerOnStart = _allTokenOwnerOnStart;\n    totalSupply = 550000000000000;\n    balances[allTokenOwnerOnStart] = totalSupply;\n    Mint(allTokenOwnerOnStart, totalSupply);\n    Transfer(0x0, allTokenOwnerOnStart ,totalSupply);\n    MintFinished();\n  }\n  \n  \n  \n  function privilegeTransfer(address _to, uint256 _amount) onlySaleAgent public returns (bool) {\n      require(balances[allTokenOwnerOnStart] > _amount);\n      balances[allTokenOwnerOnStart] = safeSub(balances[allTokenOwnerOnStart], _amount);\n      balances[_to] = safeAdd(balances[_to], _amount);\n      Transfer(allTokenOwnerOnStart, _to, _amount);\n      return true;\n  }\n  function changeSaleAgent(address _saleAgent) onlyOwner public returns (bool) {\n  saleAgent = _saleAgent;\n  }\n}\n\n",
  "sourcePath": "/home/k/work/czech/vrt/contracts/VirtRealToken.sol",
  "schemaVersion": "1.0.0",
  "updatedAt": "2017-10-14T10:39:34.409Z"
}