{
  "contractName": "VirtRealTokenV1",
  "abi": [
    {
      "constant": true,
      "inputs": [],
      "name": "name",
      "outputs": [
        {
          "name": "",
          "type": "string"
        }
      ],
      "payable": false,
      "stateMutability": "view",
      "type": "function"
    },
    {
      "constant": false,
      "inputs": [
        {
          "name": "_spender",
          "type": "address"
        },
        {
          "name": "_value",
          "type": "uint256"
        }
      ],
      "name": "approve",
      "outputs": [
        {
          "name": "success",
          "type": "bool"
        }
      ],
      "payable": false,
      "stateMutability": "nonpayable",
      "type": "function"
    },
    {
      "constant": true,
      "inputs": [],
      "name": "totalSupply",
      "outputs": [
        {
          "name": "",
          "type": "uint256"
        }
      ],
      "payable": false,
      "stateMutability": "view",
      "type": "function"
    },
    {
      "constant": false,
      "inputs": [
        {
          "name": "_from",
          "type": "address"
        },
        {
          "name": "_to",
          "type": "address"
        },
        {
          "name": "_value",
          "type": "uint256"
        }
      ],
      "name": "transferFrom",
      "outputs": [
        {
          "name": "success",
          "type": "bool"
        }
      ],
      "payable": false,
      "stateMutability": "nonpayable",
      "type": "function"
    },
    {
      "constant": true,
      "inputs": [],
      "name": "decimals",
      "outputs": [
        {
          "name": "",
          "type": "uint256"
        }
      ],
      "payable": false,
      "stateMutability": "view",
      "type": "function"
    },
    {
      "constant": false,
      "inputs": [
        {
          "name": "_saleAgent",
          "type": "address"
        }
      ],
      "name": "changeSaleAgent",
      "outputs": [
        {
          "name": "",
          "type": "bool"
        }
      ],
      "payable": false,
      "stateMutability": "nonpayable",
      "type": "function"
    },
    {
      "constant": true,
      "inputs": [
        {
          "name": "_owner",
          "type": "address"
        }
      ],
      "name": "balanceOf",
      "outputs": [
        {
          "name": "balance",
          "type": "uint256"
        }
      ],
      "payable": false,
      "stateMutability": "view",
      "type": "function"
    },
    {
      "constant": false,
      "inputs": [
        {
          "name": "_agent",
          "type": "address"
        }
      ],
      "name": "setMigrationAgent",
      "outputs": [],
      "payable": false,
      "stateMutability": "nonpayable",
      "type": "function"
    },
    {
      "constant": false,
      "inputs": [
        {
          "name": "_from",
          "type": "address"
        },
        {
          "name": "_value",
          "type": "uint256"
        }
      ],
      "name": "migrateFrom",
      "outputs": [],
      "payable": false,
      "stateMutability": "nonpayable",
      "type": "function"
    },
    {
      "constant": false,
      "inputs": [
        {
          "name": "_migrationHost",
          "type": "address"
        }
      ],
      "name": "setMigrationHost",
      "outputs": [],
      "payable": false,
      "stateMutability": "nonpayable",
      "type": "function"
    },
    {
      "constant": true,
      "inputs": [],
      "name": "migrationAgent",
      "outputs": [
        {
          "name": "",
          "type": "address"
        }
      ],
      "payable": false,
      "stateMutability": "view",
      "type": "function"
    },
    {
      "constant": true,
      "inputs": [],
      "name": "owner",
      "outputs": [
        {
          "name": "",
          "type": "address"
        }
      ],
      "payable": false,
      "stateMutability": "view",
      "type": "function"
    },
    {
      "constant": false,
      "inputs": [],
      "name": "migrate",
      "outputs": [],
      "payable": false,
      "stateMutability": "nonpayable",
      "type": "function"
    },
    {
      "constant": true,
      "inputs": [],
      "name": "symbol",
      "outputs": [
        {
          "name": "",
          "type": "string"
        }
      ],
      "payable": false,
      "stateMutability": "view",
      "type": "function"
    },
    {
      "constant": true,
      "inputs": [],
      "name": "migrationHost",
      "outputs": [
        {
          "name": "",
          "type": "address"
        }
      ],
      "payable": false,
      "stateMutability": "view",
      "type": "function"
    },
    {
      "constant": false,
      "inputs": [
        {
          "name": "_to",
          "type": "address"
        },
        {
          "name": "_value",
          "type": "uint256"
        }
      ],
      "name": "transfer",
      "outputs": [
        {
          "name": "success",
          "type": "bool"
        }
      ],
      "payable": false,
      "stateMutability": "nonpayable",
      "type": "function"
    },
    {
      "constant": false,
      "inputs": [
        {
          "name": "_spender",
          "type": "address"
        },
        {
          "name": "_addedValue",
          "type": "uint256"
        }
      ],
      "name": "addApproval",
      "outputs": [
        {
          "name": "success",
          "type": "bool"
        }
      ],
      "payable": false,
      "stateMutability": "nonpayable",
      "type": "function"
    },
    {
      "constant": true,
      "inputs": [],
      "name": "saleAgent",
      "outputs": [
        {
          "name": "",
          "type": "address"
        }
      ],
      "payable": false,
      "stateMutability": "view",
      "type": "function"
    },
    {
      "constant": false,
      "inputs": [
        {
          "name": "_to",
          "type": "address"
        },
        {
          "name": "_amount",
          "type": "uint256"
        }
      ],
      "name": "privilegeTransfer",
      "outputs": [
        {
          "name": "",
          "type": "bool"
        }
      ],
      "payable": false,
      "stateMutability": "nonpayable",
      "type": "function"
    },
    {
      "constant": true,
      "inputs": [],
      "name": "allTokenOwnerOnStart",
      "outputs": [
        {
          "name": "",
          "type": "address"
        }
      ],
      "payable": false,
      "stateMutability": "view",
      "type": "function"
    },
    {
      "constant": true,
      "inputs": [
        {
          "name": "_owner",
          "type": "address"
        },
        {
          "name": "_spender",
          "type": "address"
        }
      ],
      "name": "allowance",
      "outputs": [
        {
          "name": "remaining",
          "type": "uint256"
        }
      ],
      "payable": false,
      "stateMutability": "view",
      "type": "function"
    },
    {
      "constant": false,
      "inputs": [
        {
          "name": "_spender",
          "type": "address"
        },
        {
          "name": "_subtractedValue",
          "type": "uint256"
        }
      ],
      "name": "subApproval",
      "outputs": [
        {
          "name": "success",
          "type": "bool"
        }
      ],
      "payable": false,
      "stateMutability": "nonpayable",
      "type": "function"
    },
    {
      "constant": false,
      "inputs": [
        {
          "name": "newOwner",
          "type": "address"
        }
      ],
      "name": "transferOwnership",
      "outputs": [],
      "payable": false,
      "stateMutability": "nonpayable",
      "type": "function"
    },
    {
      "inputs": [
        {
          "name": "_owner",
          "type": "address"
        },
        {
          "name": "_allTokenOwnerOnStart",
          "type": "address"
        }
      ],
      "payable": false,
      "stateMutability": "nonpayable",
      "type": "constructor"
    },
    {
      "payable": true,
      "stateMutability": "payable",
      "type": "fallback"
    },
    {
      "anonymous": false,
      "inputs": [
        {
          "indexed": true,
          "name": "from",
          "type": "address"
        },
        {
          "indexed": true,
          "name": "to",
          "type": "address"
        },
        {
          "indexed": false,
          "name": "value",
          "type": "uint256"
        }
      ],
      "name": "Upgrade",
      "type": "event"
    },
    {
      "anonymous": false,
      "inputs": [
        {
          "indexed": false,
          "name": "agent",
          "type": "address"
        }
      ],
      "name": "UpgradeAgentSet",
      "type": "event"
    },
    {
      "anonymous": false,
      "inputs": [
        {
          "indexed": true,
          "name": "from",
          "type": "address"
        },
        {
          "indexed": true,
          "name": "to",
          "type": "address"
        },
        {
          "indexed": false,
          "name": "value",
          "type": "uint256"
        }
      ],
      "name": "Transfer",
      "type": "event"
    },
    {
      "anonymous": false,
      "inputs": [
        {
          "indexed": true,
          "name": "owner",
          "type": "address"
        },
        {
          "indexed": true,
          "name": "spender",
          "type": "address"
        },
        {
          "indexed": false,
          "name": "value",
          "type": "uint256"
        }
      ],
      "name": "Approval",
      "type": "event"
    },
    {
      "anonymous": false,
      "inputs": [
        {
          "indexed": true,
          "name": "previousOwner",
          "type": "address"
        },
        {
          "indexed": true,
          "name": "newOwner",
          "type": "address"
        }
      ],
      "name": "OwnershipTransferred",
      "type": "event"
    }
  ],
  "bytecode": "0x6060604052341561000f57600080fd5b604051604080610efe833981016040528080519190602001805160008054600160a060020a03958616338716600160a060020a03199283161782161790915560078054959092169416939093179092555050610e8e806100706000396000f300606060405236156101305763ffffffff7c010000000000000000000000000000000000000000000000000000000060003504166306fdde0381146101a6578063095ea7b31461023057806318160ddd1461026657806323b872dd1461028b578063313ce567146102b35780635e8714d5146102c657806370a08231146102e557806375e2ff65146103045780637a3130e3146103235780637bd6c0e4146103455780638328dbcd146103645780638da5cb5b146103935780638fd3ab80146103a657806395d89b41146103b9578063a4a8f8ea146103cc578063a9059cbb146103df578063ac3cb72c14610401578063b1d6a2f014610423578063d1ce039314610436578063d9520c9a14610458578063dd62ed3e1461046b578063e2301d0214610490578063f2fde38b146104b2575b600454600160a060020a0316151561014757600080fd5b600160a060020a0333166000908152600260205260408120541161016a57600080fd5b6101726104d1565b600160a060020a0333163480156108fc0290604051600060405180830381858888f1935050505015156101a457600080fd5b005b34156101b157600080fd5b6101b9610602565b60405160208082528190810183818151815260200191508051906020019080838360005b838110156101f55780820151838201526020016101dd565b50505050905090810190601f1680156102225780820380516001836020036101000a031916815260200191505b509250505060405180910390f35b341561023b57600080fd5b610252600160a060020a0360043516602435610639565b604051901515815260200160405180910390f35b341561027157600080fd5b6102796106a5565b60405190815260200160405180910390f35b341561029657600080fd5b610252600160a060020a03600435811690602435166044356106ab565b34156102be57600080fd5b6102796107ac565b34156102d157600080fd5b610252600160a060020a03600435166107b1565b34156102f057600080fd5b610279600160a060020a03600435166107fe565b341561030f57600080fd5b6101a4600160a060020a0360043516610819565b341561032e57600080fd5b6101a4600160a060020a036004351660243561089c565b341561035057600080fd5b6101a4600160a060020a036004351661092d565b341561036f57600080fd5b610377610977565b604051600160a060020a03909116815260200160405180910390f35b341561039e57600080fd5b610377610986565b34156103b157600080fd5b6101a46104d1565b34156103c457600080fd5b6101b9610995565b34156103d757600080fd5b6103776109cc565b34156103ea57600080fd5b610252600160a060020a03600435166024356109db565b341561040c57600080fd5b610252600160a060020a0360043516602435610aa0565b341561042e57600080fd5b610377610b52565b341561044157600080fd5b610252600160a060020a0360043516602435610b61565b341561046357600080fd5b610377610c77565b341561047657600080fd5b610279600160a060020a0360043581169060243516610c86565b341561049b57600080fd5b610252600160a060020a0360043516602435610cb1565b34156104bd57600080fd5b6101a4600160a060020a0360043516610d91565b600454600090600160a060020a031615156104eb57600080fd5b50600160a060020a03331660009081526002602052604090205461050f8180610e2c565b600160a060020a0333166000908152600260205260409020556001546105359082610e2c565b600155600454600160a060020a0316637a3130e333836040517c010000000000000000000000000000000000000000000000000000000063ffffffff8516028152600160a060020a0390921660048301526024820152604401600060405180830381600087803b15156105a757600080fd5b6102c65a03f115156105b857600080fd5b5050600454600160a060020a03908116915033167f7e5c344a8141a805725cb476f76c6953b842222b967edd1f78ddb6e8b3f397ac8360405190815260200160405180910390a350565b60408051908101604052601881527f5669727475616c205265616c69747920546f6b656e2076310000000000000000602082015281565b600160a060020a03338116600081815260036020908152604080832094871680845294909152808220859055909291907f8c5be1e5ebec7d5bd14f71427d1e84f3dd0314c0f7b2291e5b200ac8c7c3b9259085905190815260200160405180910390a350600192915050565b60015481565b600160a060020a0380841660009081526003602090815260408083203385168452825280832054938616835260029091528120549091906106ec9084610e3e565b600160a060020a03808616600090815260026020526040808220939093559087168152205461071b9084610e2c565b600160a060020a03861660009081526002602052604090205561073e8184610e2c565b600160a060020a03808716600081815260036020908152604080832033861684529091529081902093909355908616917fddf252ad1be2c89b69c2b068fc378daa952ba7f163c4a11628f55a4df523b3ef9086905190815260200160405180910390a3506001949350505050565b600681565b6000805433600160a060020a039081169116146107cd57600080fd5b6006805473ffffffffffffffffffffffffffffffffffffffff1916600160a060020a03939093169290921790915590565b600160a060020a031660009081526002602052604090205490565b60005433600160a060020a0390811691161461083457600080fd5b6004805473ffffffffffffffffffffffffffffffffffffffff1916600160a060020a0383161790557f7845d5aa74cc410e35571258d954f23b82276e160fe8c188fa80566580f279cc81604051600160a060020a03909116815260200160405180910390a150565b60055433600160a060020a039081169116146108b757600080fd5b600160a060020a038216600090815260026020526040902054818101116108dd57600080fd5b600160a060020a0382166000908152600260205260409020546109009082610e3e565b600160a060020a0383166000908152600260205260409020556001546109269082610e3e565b6001555050565b60005433600160a060020a0390811691161461094857600080fd5b6005805473ffffffffffffffffffffffffffffffffffffffff1916600160a060020a0392909216919091179055565b600454600160a060020a031681565b600054600160a060020a031681565b60408051908101604052600581527f5652547631000000000000000000000000000000000000000000000000000000602082015281565b600554600160a060020a031681565b60006040366044146109ec57600080fd5b600160a060020a033316600090815260026020526040902054610a0f9084610e2c565b600160a060020a033381166000908152600260205260408082209390935590861681522054610a3e9084610e3e565b600160a060020a0380861660008181526002602052604090819020939093559133909116907fddf252ad1be2c89b69c2b068fc378daa952ba7f163c4a11628f55a4df523b3ef9086905190815260200160405180910390a35060019392505050565b600080604036604414610ab257600080fd5b600160a060020a033381166000908152600360209081526040808320938916835292905220549150610ae48285610e3e565b600160a060020a033381166000818152600360209081526040808320948b168084529490915290819020849055919290917f8c5be1e5ebec7d5bd14f71427d1e84f3dd0314c0f7b2291e5b200ac8c7c3b92591905190815260200160405180910390a3506001949350505050565b600654600160a060020a031681565b60065460009033600160a060020a03908116911614610b7f57600080fd5b600654600160a060020a03161515610b9657600080fd5b600754600160a060020a0316600090815260026020526040902054829011610bbd57600080fd5b600754600160a060020a0316600090815260026020526040902054610be29083610e2c565b600754600160a060020a039081166000908152600260205260408082209390935590851681522054610c149083610e3e565b600160a060020a03808516600081815260026020526040908190209390935560075490929116907fddf252ad1be2c89b69c2b068fc378daa952ba7f163c4a11628f55a4df523b3ef9085905190815260200160405180910390a350600192915050565b600754600160a060020a031681565b600160a060020a03918216600090815260036020908152604080832093909416825291909152205490565b600080604036604414610cc357600080fd5b600160a060020a03338116600090815260036020908152604080832093891683529290522054915081841115610d2057600160a060020a033381166000908152600360209081526040808320938916835292905290812055610d2a565b610ae48285610e2c565b600160a060020a033381166000818152600360209081526040808320948a168084529490915290819020547f8c5be1e5ebec7d5bd14f71427d1e84f3dd0314c0f7b2291e5b200ac8c7c3b925915190815260200160405180910390a3506001949350505050565b60005433600160a060020a03908116911614610dac57600080fd5b600160a060020a0381161515610dc157600080fd5b600054600160a060020a0380831691167f8be0079c531659141344cd1fd0a4f28419497f9722a3daafe3b4186f6b6457e060405160405180910390a36000805473ffffffffffffffffffffffffffffffffffffffff1916600160a060020a0392909216919091179055565b600082821115610e3857fe5b50900390565b6000828201838110801590610e535750828110155b1515610e5b57fe5b93925050505600a165627a7a72305820ba4598ec1f440934ee42405725a0d0c23ac10c3dad8204847b2ae857a80c135c0029",
  "source": "pragma solidity ^0.4.16;\n\nimport \"./UpgradeableTokenV1.sol\";\n\n\ncontract VirtRealTokenV1 is  MigrationAgent, UpgradeableToken {\n  address public saleAgent;\n  address public allTokenOwnerOnStart;\n  string public constant name = \"Virtual Reality Token v1\";\n  string public constant symbol = \"VRTv1\";\n  uint256 public constant decimals = 6;\n  \n\n  \n modifier onlySaleAgent() {\n    require(msg.sender == saleAgent);\n    require(saleAgent != 0);\n    _;\n  }\n\n  function VirtRealTokenV1(address _owner, address _allTokenOwnerOnStart) public {\n     // save the owner\n    owner = _owner;\n    allTokenOwnerOnStart = _allTokenOwnerOnStart;\n  }\n  \n  \n  \n  function privilegeTransfer(address _to, uint256 _amount) onlySaleAgent public returns (bool) {\n      require(balances[allTokenOwnerOnStart] > _amount);\n      balances[allTokenOwnerOnStart] = safeSub(balances[allTokenOwnerOnStart], _amount);\n      balances[_to] = safeAdd(balances[_to], _amount);\n      Transfer(allTokenOwnerOnStart, _to, _amount);\n      return true;\n  }\n  function changeSaleAgent(address _saleAgent) onlyOwner public returns (bool) {\n  saleAgent = _saleAgent;\n  }\n}\n",
  "sourcePath": "/home/k/work/czech/vrt/contracts/VirtRealTokenV1.sol",
  "schemaVersion": "1.0.0",
  "updatedAt": "2017-10-14T10:39:33.838Z"
}